:02000002B0004C
:1040000000400B007A670B00000006000C00050260
:084010000401B41400000000DB
:0440180054620B00E3
:10401C0010F8012B11F8013B012A28BF9A42F7D066
:10402C00D01A7047034613F8012B002AFBD1181A3B
:10403C000138704709480A49884208B505D0094A31
:10404C00824202D0121A02F045F80748074A0021B2
:10405C00121A02F04DF8014808BD00BF78E50320A4
:10406C0050660B0074E6032074E60320F0E703208F
:10407C0070B5074E074C01F0A1FEA41BA408002547
:10408C00AC4200D170BD56F8043B98470135F7E7B8
:10409C0008660B002C660B0000F070B808B500F039
:1040AC0075F8BDE8084001F041BE00F0CFBE00F04D
:1040BC00CDBE00F0D3BE00F0D1BE0078B0FA80F0D7
:1040CC00400970470123037070470000B0B502F13E
:1040DC00080384B023F0070300AFADEB030D1446C7
:1040EC00684601F0F7FF0023694638460DF80430A6
:1040FC0001F009F91849384601F07BF904463846B5
:10410C0001F0B6F87CB1154B1549164801221A700E
:10411C00154A00F058FB104A1449124800F053FBA2
:10412C001037BD46B0BD6946384601F0ECF8104971
:10413C00384601F05EF90546384601F099F845B16C
:10414C00064B0C4A064907481C7000F03CFB084A19
:10415C00E2E7094A0249E0E768620B00D8E603206F
:10416C0076620B0078E603206D620B0085620B0013
:10417C008E620B0094620B009E620B000149024898
:10418C0000F0C5BCAA620B0078E6032070B52E487F
:10419C0090B000F09DF9002847D02B4800F06FFB41
:1041AC002A4C2B4D00262A6802EBC2029119684654
:1041BC0054F821100A22013601F0E5F80A223146A2
:1041CC0004A801F0E0F823490CA801F09CF804A91C
:1041DC000CA801F002F9014608A801F0B7F80CA8E8
:1041EC0001F046F8009A0899174800F0ECFA08A874
:1041FC0001F03EF804A801F03BF8684601F038F8ED
:10420C00062ED0D12B68242202FB0343986900F0C0
:10421C004DFE114A2B68127803EBC303134404EBD5
:10422C008303DB692B6010B070BD0CA800F09EFD01
:10423C000C99054800F03CFA0CA801F019F8074954
:10424C00014800F064FCABE778E6032078E5032036
:10425C0074E60320B9620B00D8E60320AA620B00B7
:10426C0013B50024074B0849009440F25B720748D1
:10427C0000F052F82146012002B0BDE8104000F0D9
:10428C0059BD00BFD9400B00C1620B0078E603207A
:10429C0091F85C3010B50446016013B1886D00F0E4
:1042AC0041FC204610BD10B5036893F85C20044611
:1042BC0012B1986D00F03EFC204610BDF8B51F46BB
:1042CC009DF8243004460D4616462BB1012380F888
:1042DC005C30583000F01EFC089B236300236363A2
:1042EC0006B1A66425B1294604F1380001F039F86D
:1042FC00069B2365079BE069A4F84C70FF2BB8BFA5
:10430C00FF23A4F8543008B1FFF7D3FEB4F85400DF
:10431C00FFF7CDFEE061F8BD2DE9FF410446002515
:10432C00174698460E4601F065FB0D49E56104F110
:10433C00380000F0E8FF9DF82830A564CDE9028331
:10434C00FF220F23CDE90032204684F85C503B4617
:10435C002A463146FFF7B2FF204604B0BDE8F08193
:10436C008D620B0010B50446204601F09FFA002820
:10437C00FAD0204601F084F8C0B210BD2DE9F04708
:10438C0005468846FFF7EEFFEB691870EB6993F86A
:10439C0000A04FF001090AF0F00A00274C4628460D
:1043AC00FFF7E0FF2646EB69985500F07F0313FBFF
:1043BC0009F31F4401340306A4B2BFB24FEAC91972
:1043CC00EDD4631EBAF1300F88F800301ED12846A8
:1043DC00FFF7C8FFEB6918552846FFF7C3FFF41C1D
:1043EC000236B6B2EB69A4B298550226B6B2BE42FA
:1043FC000ED22846FFF7B6FFB5F85430A34284BF5F
:10440C00EB6918550134A4B20136EFE70026EDE74D
:10441C00B5F85430A3422CBF20460020BDE8F087ED
:10442C002DE9F34115461E461A46074600239646CB
:10443C0002A802F07F0CBEF17F0F03F101040344CC
:10444C0088BF4CF0800CBEF17F0F4FEAD212E4B261
:10445C0003F804CC1ED8C4F10403C4F10500E954DC
:10446C00224601A9284405EB030801F033FE721C17
:10447C0022444146384600F0EEFF054600F072FB40
:10448C00621C78623244A8B2131A5842584102B0E6
:10449C00BDE8F0812346CAE70233F0B5054698B271
:1044AC000023CE5C9CB256B1B5F854C0844503F1E0
:1044BC00010704D9441C16543B46A0B2F1E799B24B
:1044CC00411A0A44210A02F8021C02F8013CF0BD10
:1044DC0038B5044601F00CF9002814BF012500255D
:1044EC0002D1204601F03CFA284638BD2DE9F047B0
:1044FC0088B00446DDF840809DF850A089461746E8
:10450C001E46FFF7E5FF0546002840F0CD8021460A
:10451C0001A8FFF7BDFEA16C002940F08880B4F81B
:10452C004C20A16B2B46204601F064F800287AD071
:10453C00012323849DF85430E269042B5B4B40F03B
:10454C008180186899889B79ADF80C108DF80E3025
:10455C000290C2F805009DF80E30BDF80C10A2F8C0
:10456C000910D3720C23B8F1000F00F081809DF874
:10457C0048009DF84420400140EAC20040F006008B
:10458C00C0B2BAF1000F01D100F0FD001FB1002E36
:10459C0070D140F08000E269D054226DE169581C62
:1045AC0012120A549A1CE169206D88540333E26993
:1045BC0049462046FFF770FF0346B8F1000F0BD0B9
:1045CC00E26941462046FFF767FFE269139903460B
:1045DC002046FFF761FF034667B1E2693946204682
:1045EC00FFF75AFF03462EB1E26931462046FFF72A
:1045FC0053FF0346053BE2699BB210212046FFF7AF
:10460C000FFF00F0AFFAC4E909004FF47A762046A8
:10461C0001F04CF988BB00F0A5FAA36AC01A236D0F
:10462C0073439842F3D9204601F09AF935E002A879
:10463C0000F004FDB4F84C202B4602A9204601F0F2
:10464C00B9F873E7D3F80700D3F80B10DB7B0DF147
:10465C00080CACE803008CF8003002AB03CBC2F8BA
:10466C000500C2F809109CF8003053730E237AE74A
:10467C00022086E740F0C0008DE702A92046FFF734
:10468C007DFE0428CFD1E369DE78002ECBD100F07B
:10469C0069FA0125A06284F82C6001A8FFF703FEDB
:1046AC00284608B0BDE8F0870025F9E744620B0006
:1046BC007FB501230422CDE904320023CDE9023376
:1046CC00CDE900331A46FFF711FF07B05DF804FB84
:1046DC002DE9F74FDDF83C809DF834509DF838906B
:1046EC0004468B4616461F46FFF7F2FE824600280C
:1046FC0051D0214601A8FFF7CBFDB4F85420E06956
:10470C00002101F0F5FC0523E26959462046FFF72C
:10471C00C3FE6B1E012B15D8218CE369013189B2C4
:10472C002184090A1954421CE369218C92B202308B
:10473C00995480B2B8F1000F04D0238C5A1C2284F7
:10474C00A8F8003000210B188F42E2699BB20AD9FD
:10475C00B4F854C09C4506D916F801C002F803C041
:10476C00013189B2EFE79DF8301000290CBF3021E0
:10477C003121B9F1000F01D041F00801022D0ED109
:10478C0041F00401053B9BB22046FFF749FE8246EF
:10479C0001A8FFF788FD504603B0BDE8F08F012D4E
:1047AC0008BF41F00201EDE71FB5089C03940024FB
:1047BC0002949DF81C4001949DF818400094FFF75A
:1047CC0087FF04B010BD30B587B004461046059184
:1047DC000492FFF727FC00250346CDE90155DDE9DE
:1047EC00042100952046FFF7DFFF07B030BD73B5FD
:1047FC0004460E46FFF76CFE0546C8B1214601A8DB
:10480C00FFF746FDE36962221A70E36902225A70CF
:10481C00E369320A9A70E369DE70E169042220468A
:10482C0000F019FE051E01A818BF0125FFF73BFD7E
:10483C00284602B070BD73B504460E46FFF748FE1D
:10484C000546C8B1214601A8FFF722FDE369722293
:10485C001A70E36902225A70E369320A9A70E369AA
:10486C00DE70E1690422204600F0F5FD051E01A86A
:10487C0018BF0125FFF717FD284602B070BD2DE9C2
:10488C00F04F2DED028B87B000AF0446FFF720FEF2
:10489C008146F8B1214607F11400FFF7F9FC00F04E
:1048AC0061F9236D4FF47A725343A26A821A9A42C9
:1048BC00064603D8626A821A934221D294F82C30AD
:1048CC007BB1204601F04CF84FF0000907F11400C1
:1048DC00FFF7E9FC48461C37BD46BDEC028BBDE832
:1048EC00F08FE269C0211170E2695370E169022214
:1048FC00204600F0B0FDC4E90966012384F82C3091
:10490C00204600F0D3FF0028E0D007F11301204629
:10491C00FFF734FD83460028D8D0E369A6621978E6
:10492C0001F0F002302A7FD1D4F830A0BAF1000F98
:10493C00CCD097F813C06A4608EE102A03EB0C0291
:10494C005178957805EB0125ADB205F10802694661
:10495C00D208A1EBC20295460CF10302FA6003EBFC
:10496C00020E0DEB05026846C7F808D07A60D7E94D
:10497C0001218A4206D00A461EF8018B02F8018BEF
:10498C00BA60F4E70022425593F80080F96808F009
:10499C000608ABEB0C02033AB8F1020FA2EB0502CE
:1049AC00294425D113F801E01944023A91F801B0D9
:1049BC000CF10501294419440BEB0E2BD047E3698C
:1049CC0040221A70E3691FFA8BFB83F80180E369BC
:1049DC004FEA1B229A70E36983F803B0E169042261
:1049EC00204600F038FD666218EE103A9D466DE7E1
:1049FC00B8F1040F15D113F801E01944023A91F8FB
:104A0C0001B00CF10501294419440BEB0E2BD047D6
:104A1C00E36950221A70E36902221FFA8BFB5A7069
:104A2C00D5E71944D047DFE7502A08D19A78D978CE
:104A3C0001EB022189B22046FFF7D9FE46E7402A56
:104A4C0012D1626B002A3FF441AFBBF1040F7FF42B
:104A5C003DAF11F0060F7FF439AF9978D87800EBA1
:104A6C00012080B2904731E7602A08D19A78D97832
:104A7C0001EB022189B22046FFF7DDFE26E7702A02
:104A8C00DFD0902A3FF422AFC02A0AD1D0221A706C
:104A9C00E36900225A70E1690222204600F0DBFC37
:104AAC0014E7D02A04BF002384F82C300EE7F7B5A6
:104ABC0004460F461646FFF70BFD054610B321467C
:104ACC0001A8FFF7E5FB238C01339BB2EBB12384E8
:104ADC00238CE2691B0A5371E369228C9A71E26997
:104AEC00072339462046FFF7D7FCE3691E540438E8
:104AFC0083B2E26982212046FFF792FC054601A8A9
:104B0C00FFF7D1FB284603B0F0BD0123DFE70022FD
:104B1C00FFF7CDBF08B5024B1B681B6B019308BD9B
:104B2C004802030008B5024B1B689B6B019308BD40
:104B3C004802030008B5024B1B681B6C019308BDAF
:104B4C004802030008B5024B1B685B6C019308BD5F
:104B5C004802030008B5024B1B685B68019308BD53
:104B6C001802030008B5024B1B685B69019308BD72
:104B7C001802030008B5024B1B685B69019308BD62
:104B8C006C02030008B5024B1B685B69019308BDFE
:104B9C006402030008B5024B1B681B6A019308BD35
:104BAC006402030008B5024B1B689B6A019308BDA5
:104BBC006402030008B5024B1B689B68019308BD97
:104BCC006802030008B5024B1B68DB68019308BD43
:104BDC006802030008B5024B1B689B69019308BD72
:104BEC003802030008B5024B1B68DB69019308BD52
:104BFC003802030008B5024B1B681B6A019308BD01
:104C0C003802030008B5024B1B689B6A019308BD70
:104C1C003802030008B5024B1B681B6B019308BDDF
:104C2C003802030008B5024B1B689B6B019308BD4F
:104C3C003802030008B5024B1B68DB68019308BD02
:104C4C003C02030008B5024B1B681B69019308BDAD
:104C5C003C02030008B5024B1B685B69019308BD5D
:104C6C003C02030008B5024B1B689B69019308BD0D
:104C7C003C02030008B5024B1B68DB69019308BDBD
:104C8C003C02030008B5024B1B689B6A019308BDEC
:104C9C003C02030008B5024B1B681B6C019308BD5A
:104CAC003C02030008B5024B1B681B68019308BD4E
:104CBC004C02030008B5024B1B681B69019308BD2D
:104CCC004C02030008B5024B1B685B69019308BDDD
:104CDC004C02030008B5024B1B689B69019308BD8D
:104CEC004C02030008B5024B1B68DB69019308BD3D
:104CFC004C02030008B5024B1B681B6A019308BDEC
:104D0C004C02030008B5024B1B681B6D019308BDD8
:104D1C006002030008B5024B1B685B68019308BD79
:104D2C002002030008B5024B1B685B69019308BDA8
:104D3C002002030008B5024B1B68DB6A019308BD17
:104D4C002002030008B5034B1B68D3F8883001938D
:104D5C0008BD00002002030008B5034B1B68D3F804
:104D6C009430019308BD00002002030008B5024BEB
:104D7C001B68DB69019308BD4402030008B5024BB4
:104D8C001B68DB6B019308BD4402030008B5024BA2
:104D9C001B685B68019308BD4002030008B5024B19
:104DAC001B689B68019308BD4002030008B5024BC9
:104DBC001B68DB68019308BD4002030008B5024B79
:104DCC001B681B69019308BD4002030008B5024B28
:104DDC001B685B69019308BD4002030008B5024BD8
:104DEC001B689B69019308BD4002030008B5024B88
:104DFC001B68DB69019308BD4002030008B5024B38
:104E0C001B681B6A019308BD4002030008B5024BE6
:104E1C001B681B6B019308BD4002030008B5024BD5
:104E2C001B685B6B019308BD4002030008B5024B85
:104E3C001B681B6C019308BD4002030008B5024BB4
:104E4C001B685B6C019308BD4002030008B5024B64
:104E5C001B681B68019308BD1C02030008B5024BBC
:104E6C001B685B68019308BD1C02030008B5024B6C
:104E7C001B689B68019308BD1C02030008B5024B1C
:104E8C001B68DB6B019308BD1C02030008B5024BC9
:104E9C001B681B6C019308BD1C02030008B5024B78
:104EAC001B685B6C019308BD1C0203000021FFF71B
:104EBC0039BF0000024800230360FFF743BE00BF68
:104ECC00DCE60320002240681146FFF797BF002262
:104EDC0040681146FFF7A2BF40680022FFF796BF5B
:104EEC004068002281F00101FFF780BF0023406879
:104EFC001A461946FFF772BF002340681A46194636
:104F0C00FFF764BF002240681146FFF757BF00222D
:104F1C0040681146FFF742BF406800220221FFF7AC
:104F2C0045BF002340681A46FFF730BF024B0322EF
:104F3C005A60024A1A607047E0E60320E0620B00F8
:104F4C00704710B518210446FFF7B5F8204610BD80
:104F5C00F0B5037D062B8DB00E4600F104074FF023
:104F6C00000412D000F1080515F8011D0A22304684
:104F7C0000F059F9AF42044419D0002CF4D02E2182
:104F8C00304600F04DF90444EEE72F236A463946CB
:104F9C000A208DF80040FFF7F5FD6846FFF742F850
:104FAC0033680246DB68694630469847044620461B
:104FBC000DB0F0BD10B5054B0446112240F8043B72
:104FCC00002101F095F8204610BD00BF1C630B00BA
:104FDC000346074A10B543F8042B01F1100251F8AF
:104FEC00044B43F8044B9142F9D10A781A7010BD66
:104FFC001C630B00037D042B04D14068003818BFE0
:10500C0001207047062B07D143683BB983682BB945
:10501C00C3681BB90069F1E7002070470120704795
:10502C0010B59DF8084044EA032343EA024242EAE1
:10503C00016104234160037510BD000007B5064BE8
:10504C000360CB7800938B784A780978FFF7E8FFF8
:10505C0003B05DF804FB00BF1C630B00014B024A5C
:10506C001A607047E8E6032028630B0000234068B1
:10507C001A46FFF78BBE406800220221FFF796BE4E
:10508C00002240681146FFF789BE00224068114695
:10509C00FFF794BE002340681A461946FFF796BEE8
:1050AC00002340681A461946FFF798BE4068002155
:1050BC00FFF7BCBE40680021FFF7C0BE406800226D
:1050CC0081F00101FFF792BE40680022FFF79EBEFF
:1050DC00002240681146FFF7A1BE0022406811462D
:1050EC00FFF78CBE2DE9F04395B014460D460746EC
:1050FC00FFF760FF00211C220DA8009100F0F8FFC3
:10510C0040230C9320466B460CAA0021FFF75AFD56
:10511C00044600284BD1024601216868FFF74EFE79
:10512C000221804622466868FFF748FE009E8146B1
:10513C002146002E3BD0002939D17368022B03D0B5
:10514C000A2B11D0F669F4E7B8F1000FFAD07169A7
:10515C0006A8043107ADFFF771FF0FCD3C1D0FC43E
:10516C002B6823704146EDE7B9F1000FEAD0746962
:10517C00102201A800F0BCFF06238DF8143001ADFD
:10518C0004F108031834186859682A4603C2083316
:10519C00A3421546F7D101A906A807ADFFF718FFE2
:1051AC000FCD3C1D0FC42B6823704946CAE70098ED
:1051BC00FFF700FD384615B0BDE8F083024B034AFB
:1051CC001A6000225A607047ECE6032034630B002F
:1051DC00F8B506460D468F180024BD420CD0336836
:1051EC0015F8011B9B6830469847031E01DB1C44D5
:1051FC00F3E7002C08BF1C462046F8BD13B5044647
:10520C00084659B10191FEF70DFF23680199DB683F
:10521C000246204602B0BDE81040184702B010BD4F
:10522C0003689B68184730B58BB00023012A8DF8B2
:10523C00243098BF0A2209AC0D46B1FBF2F101FBF8
:10524C00125303F0FF03092B94BF30333733DBB217
:10525C00AA4204F8013DEFD92146FFF7CFFF0BB06E
:10526C0030BD0000014B00229A607047F4E6032029
:10527C0010B504460068FFF7F1FD204610BD10B5CF
:10528C000446006808B1FFF7E9FD0023C4E90133C7
:10529C00236010BD38B504460D4600680131FFF798
:1052AC00E5FD10B1C4E90005012038BD10B5036857
:1052BC00044623B143688B4201D3012010BD204624
:1052CC00FFF7E8FF0028F9D0A368002BF5D122687E
:1052DC001370F2E737B50D46114601920446FFF7FD
:1052EC00E5FF019A28B92046FFF7C9FF204603B015
:1052FC0030BDA2602946206800F0ECFE2268A3684D
:10530C000021D154F2E7002313B5C0E90033044661
:10531C008360037341B108460191FEF783FE019946
:10532C0002462046FFF7D6FF204602B010BD884249
:10533C0010B5044605D00B682BB18A681946FFF7E7
:10534C00C9FF204610BDFFF79AFFFAE710B50023FE
:10535C000446C0E9003383600373FFF7E8FF20467F
:10536C0010BD13B5044659B108460191FEF75AFE1B
:10537C00019902462046FFF7ADFF204602B010BD52
:10538C00FFF77DFFF9E710B504468AB00023C4E9A6
:10539C000033A3602373084601A900F08FFC01A918
:1053AC002046FFF7DEFF20460AB010BD70B505465B
:1053BC000E4609B9002070BD6AB1846814442146B8
:1053CC00FFF774FF0028F5D02868AB683146184405
:1053DC0000F0C4FEAC600120EDE710B58A680968E6
:1053EC000446FFF7E3FF10B92046FFF748FF2046BD
:1053FC0010BD08B582683AB921B10878B0FA80F0CE
:10540C00400900E0012008BD006809B90078F5E703
:10541C00FEF7FEFDF2E70000054B02221A60054B79
:10542C00054A9A600020C3E90000FFF773BC00BF77
:10543C0010E7032004E703200000FFFF13B5036807
:10544C008DF80710DC6B01224FF0FF330DF10701D3
:10545C00A04702B010BD10B40368DC6B4FF0FF33F3
:10546C00A4465DF8044B604713B5134602688DF8EB
:10547C000710D46B0DF107010122A04702B010BD3B
:10548C0010B54369B3F88620B3F884309A420446C9
:10549C0008D06369B3F88420511CA3F8841013441A
:1054AC00187910BD03681B6998470028F1D14FF09B
:1054BC00FF30F6E7704743691868C043C00F704768
:1054CC0070470000064B994210B500F10C0405D052
:1054DC00084600F0E7FC002808BF0024204610BD59
:1054EC00D0620B0010B5AC210446FEF7E4FD20465B
:1054FC0010BDAC21FEF7DFBD2DE9F0414FF00008E7
:10550C0086B01C46C0F8048005460E461746414638
:10551C00102202A800F0ECFD631C09D04FF47A7342
:10552C00B4FBF3F203FB1244CDE902285C43049470
:10553C00686910230093006802AB41F2050240F643
:10554C00FF71FFF747FB002807DAFFF797FC0368AA
:10555C006B60002006B0BDE8F0816869002300682C
:10556C003A463146FFF756FB031EEEDB1846F1E7D1
:10557C0038B584690A4B036005467CB16368013B0E
:10558C0063605BB9236820469B689847A368013B1E
:10559C00A3601BB923682046DB689847284638BDB2
:1055AC00A4630B0010B50446FFF7E2FF20461C2154
:1055BC00FEF781FD204610BD30B587B0044601AD25
:1055CC006846FFF73BFD0FCD04340FC42B682370E6
:1055DC0007B030BD70B54D69054B04468C3544F8A9
:1055EC00043B06460FCD0FC42B682370304670BDAC
:1055FC001C630B002DE9F0439846036893B00D46ED
:10560C000024DB6A06461746984728466B46224616
:10561C0021460094FFF7D6FA0546002863D1009B7B
:10562C00002B4BD05B69002B48D006A8FFF7C2FCBF
:10563C00009B5C696378022B04D1211D06A8FFF73F
:10564C00BBFF26E00A2B24D11122294601A800F029
:10565C004FFDA368002B38D004F108030DF1040CA6
:10566C00183418685968624603C20833A34294463A
:10567C00F7D1062301A90CA88DF81430FFF7A8FC6C
:10568C000DF1340CBCE80F0007AC0FC4DCF8003093
:10569C00237006A8FFF7AEFC80B1336807ADD3F8D2
:1056AC002090124B0C930FCD0DAC0FC42B682370B4
:1056BC003A4643460CA93046C84705460098FFF7C2
:1056CC0079FA284613B0BDE8F083E368002BC3D108
:1056DC004FF6FF70D4F81090FFF75CFA8145BBD100
:1056EC0004F11401AAE72546E8E700BF1C630B0090
:1056FC0038B543691A68002A054610DAB3F88620D3
:10570C00B3F884309A420AD103681B69984704465F
:10571C0028B92B682846DB6A9847204638BD0120FB
:10572C00FCE710B54369B3F88620B3F884309A428D
:10573C00044605D06369B3F884201344187910BD6E
:10574C0003681B6998470028F4D14FF0FF30F6E747
:10575C00F8B543691746B3F88620B3F884309A42FB
:10576C0005460E4616D06969B1F88430B1F886400A
:10577C00E41ABC4228BF3C46043322461944304646
:10578C0000F0A8FC6A69B2F884302344A2F8843093
:10579C002046F8BD03681B6998470028E3D14FF0F9
:1057AC00FF34F5E742690023A2F884304269A2F87D
:1057BC00863070472DE9F0411F4603680C46DB6AC2
:1057CC008AB0054616469847237DD5F81480042BDD
:1057DC000CBF02200A2006220121FFF723FAC8F889
:1057EC0000006B691B68002B08DA2B682846DB6A03
:1057FC000024984720460AB0BDE8F0812846FFF700
:10580C00D1FFB7B1002303A9F8B20393ADF8103060
:10581C00FFF7B0F90028E8D1686906230093006807
:10582C0003AB41F20B0240F6FF71FFF7D3F90028EE
:10583C00DBD11C22002103A800F05AFC237D042B91
:10584C001DD14FF407733046ADF80C30FFF7AAF9B1
:10585C00ADF80E006068FFF79DF904906B691C228F
:10586C00186803A9FFF7C6F90028BED104340FCC81
:10587C006D698C350FC523682B700124BAE740F68F
:10588C001C233046ADF80C30FFF78CF905AEADF8A3
:10589C000E00231D04F1140718685968324603C220
:1058AC000833BB421646F7D1D8E7000030B5426941
:1058BC00B2F886308BB004462BB1B2F884209A42F1
:1058CC0001D1FFF76FFF61690868002818DBB1F898
:1058DC0086507F2D14D804310823C5F18002294449
:1058EC00FFF790F9002813DD6369B3F886200AB935
:1058FC00A3F884206369B3F886201044A3F88600CB
:10590C006369B3F88600B3F88430C01A0BB030BDAD
:10591C00FFF7B4FA03680B2BF2D0FFF7AFFA03686A
:10592C000B2BEDD020230025CDE90235FFF7A6FA8D
:10593C0003680193084B0949009302AA2B463220B5
:10594C00FFF7E0F963691868FFF74CF963694FF0EA
:10595C00FF321A60D4E700BF6F630B0068630B0063
:10596C0010B5436904461868002801DBFFF73AF9C3
:10597C0063694FF0FF321A606069112200218C308C
:10598C0000F0B6FB2046BDE81040FFF70BBF10B58A
:10599C00002304460160C0F884308830FFF70AFB0E
:1059AC00204610BD73B500234FF47A72C0E9013262
:1059BC000E4A0361026043610446AC200191FEF77C
:1059CC0074FB051E05F10C0608D00123C5E9013353
:1059DC00074B01992B603046FFF7D9FF2046C4E9ED
:1059EC000565FFF7DFFE02B070BD00BFA4630B00BE
:1059FC0088630B0010B54FF0FF310446FFF7D2FF60
:105A0C00204610BD10B504460068002801DBFFF7E6
:105A1C00E9F8204610BD0C30FFF7F4BF024B1A68B2
:105A2C00024B1A60704700BF08E6032014E70320FE
:105A3C0070474174704708B5007CFFF723F920EAE2
:105A4C00E07008BD08B5007CFFF7FCF820EAE070B8
:105A5C0008BD08B5007CFFF705F940EAE07008BD09
:105A6C0008B5007CFFF7F6F840EAE07008BD007C52
:105A7C00FFF700B937B5457C04462DB1207C03B047
:105A8C00BDE83040FFF7D6B8007C0191FFF7FAF87B
:105A9C0000280199F2DC284603B030BD10B5142162
:105AAC000446FEF708FB204610BD000010B54FF46D
:105ABC007A730446084611460022C4E90123044BBC
:105ACC002360012320746374FFF7E4F8204610BDB3
:105ADC000C640B00417470477047704708B5002187
:105AEC00007CFFF7F7F840EAE07008BD08B501212B
:105AFC00007CFFF7EFF840EAE07008BD08B5007CC9
:105B0C00FFF7E0F820EAE07008BD08B5007CFFF76D
:105B1C00D1F820EAE07008BD13B50446007C019171
:105B2C00FFF7D0F80028019901DC607C20B1207CC3
:105B3C00FFF7D8F820EAE07002B010BD007CFFF748
:105B4C00D9B810B514210446FEF7B5FA204610BD9D
:105B5C0010B54FF47A73044608460021C4E90113CA
:105B6C00044B23600123207463741146FFF79AF8E9
:105B7C00204610BD3C640B0010B5142204460021D5
:105B8C0000F0B6FA204610BD10B50F4C88B003A833
:105B9C00FFF7F2FF2178BFF35B8F11F001010FD1FA
:105BAC0020460191FEF789FA019948B103AA0748EA
:105BBC00FFF7CEFF2046FEF785FA054800F084FA81
:105BCC00024808B010BD00BF18E703201CE70320F3
:105BDC00E55A0B00002240681146FFF7EFB800228F
:105BEC0040681146FFF70AB9002240681146FFF7DA
:105BFC0015B940680022FFF709B94068002281F00E
:105C0C000101FFF7F3B8002340681A461946FFF765
:105C1C00E5B8002340681A461946FFF7D7B80022AA
:105C2C0040681146FFF7BAB8406800220221FFF71E
:105C3C00BDB8002340681A46FFF7A8B8024B0422EF
:105C4C005A60024A1A60704730E703206C640B00FC
:105C5C0010B50446FEF7E6F90138231820468342B6
:105C6C0006D90278197800F8011B03F80129F6E728
:105C7C0010BD70B50C46911E22291DD8254630B991
:105C8C00234430229D4210D205F8012BFAE7B0FBD9
:105C9C00F2F602FB1600C1B2092894BF303157311D
:105CAC00C9B205F8011B3046E9E7002320462B70EA
:105CBC00FFF7CEFF204670BD0020FCE738B5031E71
:105CCC000C4615460EDAB3F1004F4FF02D0214BFFF
:105CDC005842184601230A702A461944FFF7C9FF97
:105CEC00204638BD0123F9E7014B1860704700BF0F
:105CFC000CE6032008B50B4B43B1FFF745FF0368D7
:105D0C001B699847002801DDAFF30080064B43B1B7
:105D1C0000F0A2F803681B699847002801DDAFF377
:105D2C00008008BD000000000000000008B5FFF76F
:105D3C00E1FFFEF717FF014B186008BD40E7032099
:105D4C000548064A064908B5121A00F0C3F9054B76
:105D5C00054A1A6008BD00BF00F4032004F40320B8
:105D6C004C670B0000F403201E1C279A07B5002378
:105D7C0000931A466FF07701FEF7EEFF03B05DF863
:105D8C0004FB000007B543880A2B08D0502B0BD11D
:105D9C00094B1B684BB103B05DF804EB1847FFF7D8
:105DAC00E5FF03B05DF804FB002300931A466FF087
:105DBC007701FEF7D1FFF4E73CE7032010B512485A
:105DCC000021FFF76BF8114B1A68114B9A42114BDB
:105DDC000CBF012200221A7001D0FFF7B1FFFEF7B1
:105DEC00B9FE044600F08CF90B4B13B12046AFF30F
:105DFC00008000210848FEF7C1FFBDE810400748AD
:105E0C000021FEF79FBF00BFF55C0B0000F40320E0
:105E1C001E1C279A38E7032000000000915D0B0040
:105E2C007047000038B5044614252A46002100F0BE
:105E3C005FF925804025074925812846258200F0F9
:105E4C002FF804496060284600F02AF8E0602046EC
:105E5C0038BD00BFA0640B0030B50E4D2978BFF3E0
:105E6C005B8F11F0010487B011D12846FEF725F99C
:105E7C0068B101A8FFF7D6FF01AA21460648FFF733
:105E8C0015FE2846FEF71EF9044800F01DF90248DD
:105E9C0007B030BD44E7032048E703202D5E0B001C
:105EAC00FEF705B9014900F0F9B800BFBC640B005E
:105EBC007FB500241023CDE90234036815469E6992
:105ECC0012686B46CDE90044B0479DF8043003F0EE
:105EDC000603062B03BF009B2B600120204604B059
:105EEC0070BD0098904214BF01200620704700003E
:105EFC0010B5034B0360044600F0CDF8204610BDEE
:105F0C00FC640B0010B50446FFF7F2FF2046082195
:105F1C00FEF7D1F8204610BD2DE9F0411F46DDE912
:105F2C000834DDF8188098450646154607D10799C0
:105F3C0000F0B4F818B165710020BDE8F081394665
:105F4C00304600F0ABF80028F6D00123C4F80080EE
:105F5C002571A371F0E738B515461C4600F09EF884
:105F6C0020B10823E36006232560237138BD73B587
:105F7C0005460C4601921E4600F090F850B9032ECF
:105F8C0008D82368019A5B692946204602B0BDE80F
:105F9C007040184702B070BD10B5034B0360044647
:105FAC00FFF7A6FF204610BD5C650B0010B504463C
:105FBC00FFF7F2FF20460C21FEF77DF8204610BDBE
:105FCC00F7B5089F974205460E4614460AD0A868B6
:105FDC0002680897156A31462246AC4603B0BDE804
:105FEC00F04060471946019300F058F8019B0028D7
:105FFC00EDD0062003B0F0BD2DE9F14F0D4619464A
:10600C00DDE90A4BDDE90CA681461746984600F0FF
:10601C0045F890B1002D3460377109DB61198A4560
:10602C000CBF06210121B171002001B0BDE8F08F39
:10603C000235F9D10123B371F6E7544506D159461F
:10604C00484600F02BF808B17771EDE7D9F8080055
:10605C000368CDE90CA6CDE90A4BDC693A46434608
:10606C002946A44601B0BDE8F04F60472DE9F04148
:10607C0007460C4615461E46FFF76DFF48B9B86833
:10608C0003689F692A4633462146BC46BDE8F04169
:10609C006047BDE8F081704700207047814208B529
:1060AC000ED0406803782A2B0CD049680B782A2B29
:1060BC0008BF0131FDF7ACFFB0FA80F0400908BD14
:1060CC000120FCE70020FAE7002301461A46184697
:1060DC0000F04CB80A44914200F1FF3300D17047F4
:1060EC0010B511F8014B03F8014F9142F9D110BDD5
:1060FC0002440346934200D1704703F8011BF9E7B1
:10610C0038B5104B1D68AB6B0446B3B91820FEF7BD
:10611C009DFE0246A86320B90B4B0C484221FEF7AA
:10612C00B5FE0B490B4BC0E900130B4B83600B23E3
:10613C00838100210120C2E90401AB6B00221C61A8
:10614C005A6138BD0CE6032095650B00AC650B005D
:10615C000E33CDAB34126DE6ECDE0500034611F8C0
:10616C00012B03F8012B002AF9D170472DE9F843D4
:10617C00DFF8B8800646D8F800001F460D46914659
:10618C0000F056F8254B1C6834B9254C1C60254B87
:10619C0013B11B68C4F8883063681F2B07DDD8F86F
:1061AC00000000F047F84FF0FF30BDE8F8834EB325
:1061BC00D4F8880088B91C4B23B9D8F8000000F03B
:1061CC0038F8F0E74FF48470FEF740FE0028F4D066
:1061DC000023C0E94033C4F88800636840F823907A
:1061EC0001229A4000EB8301D0F800311343C0F830
:1061FC000031022EC1F8807002BFD0F80431134375
:10620C00C0F804316368D8F800005A1C023362608D
:10621C0044F8235000F00EF80020C6E7E8E703200E
:10622C005CE7032000000000594E0B0070E60320D1
:10623C00704770477047000000044D5154540400DF
:10624C00064D51497364700341400B007D400B00B7
:10625C00A5400B00A9400B0000000000747275658E
:10626C000045617374576169740046534D2F436F39
:10627C006F6C546F706963310046534D2F4C45441D
:10628C00310066616C7365004E6F7274685761699A
:10629C0074004F74686572207468696E67004653A9
:1062AC004D2F45706963546F706963310046534DCF
:1062BC002F4C4544006C61622E74686557434C2E1C
:1062CC00636F6D0000000000000000000000000083
:1062DC00000000002F4F0B00254F0B001B4F0B0035
:1062EC00114F0B00054F0B00F94E0B00B9500B0072
:1062FC00C1500B00ED4E0B00E54E0B00DB4E0B00BE
:10630C00D14E0B00F1500B0000000000000000000B
:10631C005D4F0B004D4F0B004F4F0B006170700029
:10632C00000000000000000079500B0083500B00AF
:10633C008D500B0097500B00A1500B00AD500B0073
:10634C00B9500B00C1500B00C9500B00D5500B00BD
:10635C00DD500B00E7500B00F1500B0077697269B0
:10636C006E670072656376206572726F72203D20D5
:10637C00256400000000000000000000CD540B005C
:10638C00F1540B00235A0B00FF540B00D1540B009B
:10639C0000000000000000007D550B00B1550B0003
:1063AC0049540B0063540B00B9580B008D540B006F
:1063BC002F570B00C1540B00C1570B0001560B009B
:1063CC005D570B006D590B00FD560B00C3540B00B1
:1063DC0075540B0005550B00E1550B0025592D2567
:1063EC006D2D25645425483A254D3A2553257A00C0
:1063FC0061736374696D65000000000000000000AB
:10640C003D5A0B00A95A0B00815A0B00DD510B00B1
:10641C00515A0B006D5A0B005F5A0B007B5A0B0044
:10642C003F5A0B00435A0B00000000000000000014
:10643C00E75A0B004F5B0B00255B0B00DD510B008B
:10644C00175B0B00E95A0B00F95A0B00495B0B0068
:10645C00095B0B00E15A0B0000000000000000007B
:10646C003F5C0B00355C0B002B5C0B00E15B0B0005
:10647C001F5C0B00135C0B00B9500B00C1500B00E0
:10648C00075C0B00FF5B0B00F55B0B00EB5B0B0081
:10649C00F1500B0000537431395F53705F6D616BB9
:1064AC00655F7368617265645F746167000000000A
:1064BC00FC640B00A1640B005C650B00D0640B004A
:1064CC0080650B004E31305F5F637878616269766E
:1064DC003131375F5F636C6173735F747970655FC3
:1064EC00696E666F4500000000000000C4640B007C
:1064FC00FD5E0B00115F0B00A5600B00A5600B008F
:10650C007B5F0B00BD5E0B00635F0B00255F0B0018
:10651C00EF5E0B005C650B002C650B00C4640B007C
:10652C004E31305F5F637878616269763132305F0B
:10653C005F73695F636C6173735F747970655F69B6
:10654C006E666F45000000000000000020650B0027
:10655C00A55F0B00B95F0B00A5600B00A5600B00DD
:10656C007B5F0B00BD5E0B0079600B0005600B00C0
:10657C00CD5F0B00FC640B0088650B005374397401
:10658C007970655F696E666F005245454E54206D9B
:10659C00616C6C6F6320737563636565646564001F
:1065AC002F746D702F6A656E6B696E732D47434344
:1065BC002D31302D706970656C696E652D34385FC6
:1065CC0032303230313132345F313630363138306E
:1065DC003633392F7372632F6E65776C69622F6E49
:1065EC0065776C69622F6C6962632F7374646C6974
:1065FC00622F72616E642E63000000006D420B000E
:10660C00C14E0B00394F0B0069500B00C9510B00E8
:10661C0071520B0025540B00295A0B00495C0B00DE
:10662C00040000001400000003000000474E550059
:10663C0057922C627A9FB334495CE70C1955A91414
:04664C00D1D7C2D20E
:106650000000000000000000010000000100000038
:1066600000000000000000006400000000000000C6
:106670000200000001000000000000000000000017
:1066800000000000000000000100000064000000A5
:1066900003000000010000000000000001000000F5
:1066A00000000000010000000000000000000000E9
:1066B000881300000100000001000000010000003C
:1066C00000000000000000000000000001000000C9
:1066D000000000008813000000000000000000001F
:1066E000FC630B0010E60320000000000000000027
:1066F000000000000000000000000000000000009A
:106700000000000000000000000000000000000089
:106710000000000000000000000000000000000079
:106720000000000000000000000000000000000069
:106730000000000000000000000000000000000059
:0C6740000000000000000000ECE7032057
:04674C000000000049
:1067560000000102030405060708090A0B0C0D0ECA
:106766000F101112131415161718191A1B1C1D1EBB
:046776001F202800B8
:04677A007856341207
:04000003B000401CED
:00000001FF
